:020000002100DD
:100100001201247480120110900160120152210E1C
:10011000C2B28004D2B28000F590D2B3C2B3D2B3DF
:100120001201572274011201101201577438120182
:1001300010120157740C12011012015774061201AB
:1001400010120157222430120114120157221201F9
:1001500014A3E49370F8227E967FFADFFEDEFA2283
:1001600057454C434F4D4520544F20504152415428
:10017000492C20434F4F4C20414E442043414C4D8D
:0801800020434F4646454500AF
:00000001FF
